:100000000C9487000C94AF000C94AF000C94AF00DC
:100010000C94AF000C94AF000C94AF000C94AF00A4
:100020000C94AF000C94AF000C94AF000C94AF0094
:100030000C94AF000C94AF000C94AF000C94AF0084
:100040000C94CC080C94AF000C949A080C9474088F
:100050000C94AF000C94AF000C94AF000C94AF0064
:100060000C94AF000C94AF00CDCCCC3D0AD7233C10
:1000700017B7D13877CC2B329595E6241FB14F0AAC
:100080000000803FCDCCCC3D6F12833A95BFD63374
:100090007D1D9026B3CE010C000020410000C84217
:1000A00000401C4620BCBE4CCA1B0E5AAEC59D74F7
:1000B00000000000240027002A00000000002500A6
:1000C00028002B00000000080002010000030407C4
:1000D00000000000000000000000000023002600D7
:1000E00029000404040404040404020202020202BB
:1000F00003030303030301020408102040800102EC
:10010000040810200102040810205209100F1124C5
:100110001FBECFEFD8E0DEBFCDBF22E0ACE7B1E03D
:1001200001C01D92A535B207E1F711E0A0E0B1E0F2
:10013000EAEAF7E202C005900D92AC37B107D9F7B1
:1001400010E0C6E8D0E004C02197FE010E94C7116C
:10015000C538D107C9F70E94AA090C94C8130C949A
:100160000000CF92DF92EF92FF92CF93DF93B09196
:100170004502A0E08111AB2F8091460290E0880FEC
:10018000991FAC0148525F4FC0904B02D0904C0277
:10019000E0904D02F0904E0230E020E0FA01C5916F
:1001A000D491E881B90190E080E0EB23EA130AC022
:1001B0002F5F3F4F6C157D058E059F0578F36FEF20
:1001C0007FEFCB01DF91CF91FF90EF90DF90CF9049
:1001D0000895AF92BF92CF92DF92EF92FF920F936A
:1001E0001F93CF93DF936C017B018B01040F151FCD
:1001F000EB015E01AE18BF08C017D10759F0699135
:10020000D601ED91FC910190F081E02DC601099598
:10021000892B79F7C501DF91CF911F910F91FF9045
:10022000EF90DF90CF90BF90AF900895FC01538D79
:10023000448D252F30E0842F90E0821B930B5417C0
:1002400010F0CF96089501970895FC01918D828D4D
:10025000981761F0A28DAE0FBF2FB11D5D968C91E6
:10026000928D9F5F9F73928F90E008958FEF9FEF25
:100270000895FC01918D828D981731F0828DE80FE1
:10028000F11D858D90E008958FEF9FEF0895FC019B
:10029000918D228D892F90E0805C9F4F821B910968
:1002A0008F739927089585E991E00E94470121E025
:1002B000892B09F420E0822F089580E090E0892BBB
:1002C00029F00E94530181110C9400000895FC0153
:1002D000A48DA80FB92FB11DA35ABF4F2C91848DA7
:1002E00090E001968F739927848FA689B7892C9304
:1002F000A089B1898C91837080648C93938D848D57
:10030000981306C00288F389E02D80818F7D808359
:100310000895EF92FF920F931F93CF93DF93EC0119
:1003200081E0888F9B8D8C8D98131AC0E889F9899C
:10033000808185FF15C09FB7F894EE89FF8960839F
:10034000E889F98980818370806480839FBF81E020
:1003500090E0DF91CF911F910F91FF90EF90089562
:10036000F62E0B8D10E00F5F1F4F0F731127E02E3D
:100370008C8D8E110CC00FB607FCFACFE889F98975
:10038000808185FFF5CFCE010E946701F1CFEB8D13
:10039000EC0FFD2FF11DE35AFF4FF0829FB7F89449
:1003A0000B8FEA89FB8980818062CFCFCF93DF9367
:1003B000EC01888D8823B9F0AA89BB89E889F9897D
:1003C0008C9185FD03C0808186FD0DC00FB607FCB2
:1003D000F7CF8C9185FFF2CF808185FFEDCFCE01E5
:1003E0000E946701E9CFDF91CF910895CF93DF930A
:1003F00090E0FC01EA50FF4F24918E519F4FFC0189
:1004000084918823D1F090E0880F991FFC01E0557A
:10041000FF4FA591B491FC01E654FF4FC591D491D3
:10042000623071F49FB7F8943C91822F80958323BA
:100430008C93E8812E2B28839FBFDF91CF91089565
:100440008FB7F894EC912E2B2C938FBFF6CF3FB73C
:10045000F89480917D0190917E01A0917F01B091EF
:10046000800126B5A89B05C02F3F19F00196A11D5C
:10047000B11D3FBFBA2FA92F982F8827BC01CD01EE
:10048000620F711D811D911D42E0660F771F881F4D
:10049000991F4A95D1F708958F929F92AF92BF927C
:1004A000CF92DF92EF92FF924B015C010E942702F4
:1004B0006B017C010E9427026C197D098E099F093E
:1004C000683E734081059105A8F321E0821A9108E6
:1004D000A108B10888EEC80E83E0D81EE11CF11C0B
:1004E00081149104A104B10429F7FF90EF90DF90EB
:1004F000CF90BF90AF909F908F9008958F929F92D2
:10050000AF92BF92EF92FF920F931F93CF93DF931F
:10051000CDB7DEB7C054D1400FB6F894DEBF0FBEE2
:10052000CDBF2FB7F8948091910190919201A09145
:100530009301B09194012FBF40914702509148021E
:100540006091490270914A028C019D01041B150BB8
:10055000260B370BB901A801403D574061057105D5
:10056000A0F480914F02C05CDE4F0FB6F894DEBF5E
:100570000FBECDBFDF91CF911F910F91FF90EF90F4
:10058000BF90AF909F908F90089580934702909373
:100590004802A0934902B0934A021092420210927C
:1005A00041021092400210923F0210923E0262E01D
:1005B000809143020E94F60161E070E080E090E0EB
:1005C0000E944C0261E0809143020E94F6018091FA
:1005D000430290E0FC01EC53FF4F2491FC01EA50F0
:1005E000FF4F3491FC01EE51FF4FE491EE23D9F01F
:1005F000222359F0233009F44BC008F03EC02130CB
:1006000009F44CC0223009F44DC0F0E0EE0FFF1F9A
:10061000E654FF4FA591B4918FB7F894EC913095C3
:100620003E233C938FBF809144028551823008F075
:1006300046C08BE291E10197F1F762E080914302BD
:100640000E94F6018091500290E08230910538F0CE
:10065000880F991F880F991F05970197F1F7F89454
:1006600080E00E94B1006F3F7F4F8F4F9F4F71F529
:1006700010924F02789480E076CF2730B1F0283086
:10068000D1F0243009F0C1CF809180008F7D03C06C
:10069000809180008F7780938000B7CF84B58F776B
:1006A00084BDB3CF84B58F7DFBCF8091B0008F77B1
:1006B0008093B000AACF8091B0008F7DF9CF64E124
:1006C00070E080E090E00E944C02B7CF81E00E9491
:1006D000B1006F3F7F4F8F4F9F4F51F2CE01019678
:1006E0007C015E019FEBA91A9EEFB90A870180E0A9
:1006F0000E94B100F801608371838283938381E05B
:100700000E94B100F8016483758386839783085F34
:100710001F4FA016B10659F7789430E020E0F7019A
:1007200080809180A280B3804481558166817781E9
:10073000FFEF8F169F06AF06BF0631F04F3F0FEF5A
:1007400050076007700719F410924F0294CFF90117
:1007500083E0F595E7958A95E1F7E25CFD4F8081AE
:10076000880F84169506A606B70618F180832F5FBA
:100770003F4F18E0E10EF11C2832310581F640911F
:10078000420220913E0280913F02280F3327331FFF
:1007900080914002280F311D80914102820F932FDA
:1007A000911D99274817190679F681E080934F0229
:1007B000DACE8160DBCFFC012581222339F0F8E01D
:1007C0002F0290011124820F931F089590E080E082
:1007D000089542E050E068E171E085E991E00C9411
:1007E000E9000F931F93CF93DF93EC0188819981E8
:1007F000009759F02A813B812617370730F081E0B6
:10080000DF91CF911F910F9108958B016F5F7F4F03
:100810000E94F212009759F0998388831B830A8300
:100820002C813D81232B59F7FC011082E8CF80E019
:10083000E7CFCF92DF92EF92FF920F931F93CF9368
:10084000DF938C01DC019296ED91FC91E80FF91F8A
:1008500012826C01B2E0CB0ED11CC114D10431F173
:10086000F60101900020E9F73197EC19FD09F1F04C
:10087000DC01ED90FC90D7011496CD91DC91CE0F68
:10088000DF1FBE01C7010E94F103882379F0F70141
:100890002081318184819581B601820F931F0E944E
:1008A000C113D7011596DC93CE931497F80113A2C8
:1008B00012A2DF91CF911F910F91FF90EF90DF90E7
:1008C000CF900895CF93DF93EC018AA19BA19C0167
:1008D0002F5F3F4F3BA32AA3FE01E80FF91F62835E
:1008E0000296809718F0CE010E9419048CA19DA158
:1008F00001969DA38CA3DF91CF910895EF92FF9273
:100900000F931F93CF93DF93EC017B0162E20E9470
:1009100062048701F80161918F01662391F0EBE198
:10092000F1E0F280FF2049F0329681816813F9CF1F
:100930006CE5CE010E9462046F2DCE010E9462041C
:10094000E9CF62E2CE01DF91CF911F910F91FF902D
:10095000EF900C946204CF92DF92EF92FF920F938C
:100960001F93CF93DF93EC016A018B017B01E40EAF
:10097000F51E0E151F05A9F0F80121918F018AA11E
:100980009BA1AC014F5F5F4F5BA34AA3FE01E80F41
:10099000F91F22830296809760F3CE010E9419040A
:1009A000E8CF4CA15DA14C0D5D1D5DA34CA3DF9173
:1009B000CF911F910F91FF90EF90DF90CF9008950E
:1009C000EF92FF920F931F93CF93DF93CDB7DEB7D4
:1009D00066970FB6F894DEBF0FBECDBF8C01CB017A
:1009E000FE0177969F014AE0E42EF12CB7010E94A8
:1009F0007D11805D8293CB010097C1F7A9014E1B49
:100A00005F0BBF01C8010E94AB0466960FB6F89455
:100A1000DEBF0FBECDBFDF91CF911F910F91FF9031
:100A2000EF9008958F929F92AF92BF92CF92DF92F4
:100A3000EF92FF920F931F93CF93DF93CDB7DEB763
:100A400066970FB6F894DEBF0FBECDBF6C018E0166
:100A5000095E1F4F78018AE0882E912CA12CB12CC1
:100A6000CB01BA01A50194010E949111942F852F09
:100A7000605DF80162938F01A901692F782F4115FC
:100A800051056105710561F7A7014E1B5F0BBF01A1
:100A9000C6010E94AB0466960FB6F894DEBF0FBE87
:100AA000CDBFDF91CF911F910F91FF90EF90DF901D
:100AB000CF90BF90AF909F908F900895FB010190D1
:100AC0000020E9F73197AF01461B570B0C94AB049C
:100AD0002F923F924F925F926F927F928F929F924E
:100AE000AF92BF92CF92DF92EF92FF920F931F933C
:100AF000CF93DF93CDB7DEB766970FB6F894DEBF1E
:100B00000FBECDBF8C011B01DC0114968C91149794
:100B10008F77863009F463C278F48230B0F0843085
:100B200008F044C212964D915C9113976D917C919F
:100B3000C1010E94AB0436C28C3069F160F4883088
:100B400009F448C28A3009F437C26CE271E0C1018D
:100B50000E945E0527C2803209F4FCC18034A9F7E7
:100B60006BE5C1010E946204F80100811181011549
:100B7000110509F4EAC1B101C8010E946805C80164
:100B80000E94DB038C01892B09F4DFC16CE2C101F7
:100B90000E946204ECCFF801C080D180E280F38033
:100BA000A7019601C701B6010E94210F882331F0E9
:100BB0006CE271E0C1010E945E059FC120E030E05F
:100BC000A901C701B6010E94210F882371F0A70176
:100BD0009601C701B6010E947D109B01AC01C701BF
:100BE000B6010E94210F882319F320E030E0A9010B
:100BF000C701B6010E94210F87FF08C06DE2C10145
:100C00000E946204F7FAF094F7F8F09420E836E9CD
:100C100048E15BE4C701B6010E94181187FD81C05D
:100C200064E1A62EB12C00E210E01A8A198AF501BF
:100C3000E856FF4F2591359145915491C701B60172
:100C40000E94181187FD13C0F501E859FF4F259147
:100C5000359145915491C701B6010E94870F6B01F0
:100C60007C0129893A89200F311F3A8B298B1595F0
:100C7000079534E0A31AB1088CEFA8168FEFB806D9
:100C8000B1F655245A9420E030E0A901C701B6011D
:100C90000E94181118160CF04BC02CEA35EC47E2F4
:100CA00057E3C701B6010E94210F18160CF440C08B
:100CB000A52DB4E0AB02C0011124B12CA12CFC0184
:100CC000E058FF4F3F019C0128563F4F49013FEF3D
:100CD000531671F1F301EA0DFB1D65917591859134
:100CE0009491A70196010E94181118169CF4F40122
:100CF000EA0DFB1D2591359145915491C701B6012F
:100D00000E94870F6B017C0189899A89801B910B56
:100D10009A8B898B159507955A9494E0A91AB10876
:100D2000D6CF00E210E045E0542E1A8A198AABCFE4
:100D3000C701B6010E94E9104B015C012B013C0187
:100D400006E080E492E4AFE0B0E08B8B9C8BAD8B4F
:100D5000BE8B102F01509AE04916510461047104B2
:100D6000C8F06B897C898D899E892AE030E040E05B
:100D700050E00E9491112B8B3C8B4D8B5E8BC301FD
:100D8000B2012AE030E040E050E00E9491112901D8
:100D90003A01DFCFC501B4010E94260F9B01AC01CF
:100DA000C701B6010E947C106B017C016B897C89B4
:100DB0008D899E890E94260F9B01AC01C701B60157
:100DC0000E94870F2B013C010E94E9106B017C01FE
:100DD0000E94260F9B01AC01C301B2010E947C104E
:100DE0009B01AC010E947D100E94E910C60ED71E27
:100DF000E81EF91E8B899C89AD89BE89C816D90663
:100E0000EA06FB06D8F09FEF891A990AA90AB90ADF
:100E1000A989BA89AB2B39F1BAE08B169104A104E8
:100E2000B10408F1E989FA893196FA8BE98BC12C72
:100E3000D12C7601812C912C540183949AE0492E77
:100E4000512C612C712CC701B601A30192010E94A3
:100E50009111672B682B692B51F4111644F4690129
:100E60007A011150F0CFC12CD12C7601E7CFB5011A
:100E7000A401C1010E941205112371F14E01F1E19B
:100E80008F0E911C012F54018AE0482E512C612CA9
:100E9000712C015068F0C701B601A30192010E94B4
:100EA0009111605DD4016E934D0169017A01F1CF1A
:100EB000812F90E0BC0160957095F501E81BF90B5E
:100EC00031978EE2808344275527461B570B6A0DC6
:100ED0007B1DC1010E94AB04E989FA89F7FF2AC092
:100EE00061E371E0C1010E945E0569897A897195AB
:100EF00061957109C1010E94E004D10194968D9120
:100F00009C9166960FB6F894DEBF0FBECDBFDF9101
:100F1000CF911F910F91FF90EF90DF90CF90BF90F6
:100F2000AF909F908F907F906F905F904F903F9089
:100F30002F90089529893A89232BF9F265E6C1019A
:100F40000E94620469897A89D5CF6DE5C1010E944A
:100F50006204D3CF6BE7C1010E946204F8010081F3
:100F6000118101151105D1F0D80116966D917C9172
:100F7000C1010E947E046AE3C1010E946204B101C2
:100F8000C8010E946805C8010E94DB038C01892BFF
:100F900029F06CE2C1010E946204E3CF6DE7C10158
:100FA0000E946204F10184A195A1ABCF6D917C9167
:100FB000C1010E947E04F6CFCD90DD90ED90FC90B3
:100FC0006DE2C1010E946204B701A601C1010E9445
:100FD0001205E8CF4D915D916D917C91F7CFF801AD
:100FE00080819181A281B38164E371E0892B8A2B96
:100FF0008B2B09F0DFCD69E371E0DCCDCF92DF927E
:10100000EF92FF920F931F93CF93DF93FC018481A4
:10101000982F9F7739F480788062848311821082C0
:1010200013821282848185FD0CC0D0E0C0E0CE0125
:10103000DF91CF911F910F91FF90EF90DF90CF90B4
:1010400008956115710589F37A016B018F01C081E3
:10105000D1812097C1F16E817F816C157D0539F3B7
:101060006115710529F0C6010E94B813892BF9F2A8
:10107000CE010E94DB03EC01ECCFE9012897F701D8
:10108000D583C483209789F2D8011296ED91FC9103
:101090001397309791F0CE018E1B9F0B23E095950F
:1010A00087952A95E1F785831396DC93CE93129763
:1010B0001D821C82DF82CE82BACFF801D183C08329
:1010C000D383C283F5CFD70114962D913C91159708
:1010D00012968D919C9108962817390770F681E039
:1010E000D70118968C93A3CF1F920F920FB60F9231
:1010F00011242F933F934F935F936F937F938F931D
:101100009F93AF93BF93EF93FF9385E991E00E9484
:101110006701FF91EF91BF91AF919F918F917F9167
:101120006F915F914F913F912F910F900FBE0F9054
:101130001F9018951F920F920FB60F9211242F93A4
:101140008F939F93EF93FF93E091A501F091A601F8
:101150008081E091AB01F091AC0182FD1BC09081D8
:101160008091AE018F5F8F732091AF01821741F0A4
:10117000E091AE01F0E0EB56FE4F958F8093AE010B
:10118000FF91EF919F918F912F910F900FBE0F9034
:101190001F9018958081F4CF1F920F920FB60F9277
:1011A00011242F933F938F939F93AF93BF9380917D
:1011B000910190919201A0919301B091940130918D
:1011C0007C0123E0230F2D3758F50196A11DB11D99
:1011D00020937C018093910190939201A0939301BD
:1011E000B093940180917D0190917E01A0917F0147
:1011F000B09180010196A11DB11D80937D01909356
:101200007E01A0937F01B0938001BF91AF919F9128
:101210008F913F912F910F900FBE0F901F901895B7
:1012200026E8230F0296A11DB11DD2CFEF92FF92A7
:101230000F931F93CF93DF93EC017B0119821882E8
:101240001B821A821D821C82FB0101900020E9F79B
:1012500031978F01061B170BB8010E94F1032881FB
:101260003981811113C02115310519F0C9010E947E
:101270006912198218821D821C821B821A82DF91D8
:10128000CF911F910F91FF90EF9008951D830C83D4
:10129000B701C901DF91CF911F910F91FF90EF909E
:1012A0000C94C113E5E9F1E01382128288EE93E019
:1012B000A0E0B0E084839583A683B7838AE091E0C1
:1012C0009183808385EC90E09587848784EC90E01F
:1012D0009787868780EC90E0918B808B81EC90E003
:1012E000938B828B82EC90E0958B848B86EC90E0E4
:1012F000978B868B118E128E138E148EAEE3B2E016
:1013000082E015968C9315978BE016968C93169722
:10131000E8EFF0E0E4911796EC931797E4EEF0E035
:10132000E4911896EC93189740E85EE360E070E073
:101330001D964D935D936D937C9350976FE371E091
:1013400088E392E00E9416096BE271E082E392E08A
:101350000C941609CF93DF93CDB7DEB7CA59D140AD
:101360000FB6F894DEBF0FBECDBF789484B582600F
:1013700084BD84B5816084BD85B5826085BD85B539
:10138000816085BD80916E00816080936E001092B7
:101390008100809181008260809381008091810032
:1013A00081608093810080918000816080938000C3
:1013B0008091B10084608093B1008091B000816021
:1013C0008093B00080917A00846080937A0080914D
:1013D0007A00826080937A0080917A0081608093A5
:1013E0007A0080917A00806880937A001092C10020
:1013F000E091A501F091A60182E08083E091A10136
:10140000F091A2011082E091A301F091A4018FEC70
:1014100080831092AD01E091A901F091AA0186E0CC
:101420008083E091A701F091A80180818061808391
:10143000E091A701F091A801808188608083E0910C
:10144000A701F091A801808180688083E091A701C5
:10145000F091A80180818F7D808362E080914302BA
:101460000E94F6012FB7F89480919101909192011A
:10147000A0919301B09194012FBF805D9740A10985
:10148000B1098093470290934802A0934902B09318
:101490004A0287E3809350028E0109521F4F1E01BA
:1014A0008FE0280E311C3A8229823C822B821E83D7
:1014B0000D8318870F8319868E8580788E870E940A
:1014C0007E02882349F0809144028B3028F08D30D1
:1014D00040F085518230D0F160E070E080EC9FE711
:1014E0001CC060913F0270E090E080E00E94280FF5
:1014F0002DEC3CEC4CEC5DE30E94870F6B017C0112
:1015000060913E0270E090E080E00E94280F9B0115
:10151000AC01C701B6010E947D1060938D017093EC
:101520008E0180938F01909390010E947E02882308
:1015300041F0809144028C3009F48EC3C8F48B30A2
:1015400081F160E070E080EC9FE753C060913E0263
:1015500070913F0276276727762790E080E00E940F
:10156000260F2DEC3CEC4CEC5DE30E94870FD5CFB1
:101570008551823030F7F09040026F2D70E0762F69
:10158000662766277F7780914102682B90E080E094
:101590000E94260F2DEC3CEC4CEC5DE30E94870F83
:1015A00077C36091400270E090E080E00E94260FD7
:1015B0006B017C01B0904102B7FE0AC0AC019B01F7
:1015C00060E070E080E89FEB0E947C106B017C0182
:1015D0006B2D6F7070E090E080E00E94280F2DEC82
:1015E0003CEC4CEC5DE30E94870FA70196010E9442
:1015F0007D106093890170938A0180938B01909391
:101600008C0191E490937C0080917A0080648093B7
:101610007A0080917A0086FDFCCF809178006091FD
:101620007900762F682F072E000C880B990B0E94EB
:10163000280F20E030E44CE950E40E94870F6093CB
:101640008501709386018093870190938801609152
:101650008D0170918E0180918F01909190019B017D
:10166000AC010E94631181110EC0609189017091DB
:101670008A0180918B0190918C019B01AC010E94A9
:101680006311882351F045E050E069E471E085E999
:1016900091E00E94E9000E94E90380918D01909100
:1016A0008E01A0918F01B0919001C157DE4F8883C8
:1016B0009983AA83BB83CF58D140809189019091AF
:1016C0008A01A0918B01B0918C01C956DE4F8883AD
:1016D0009983AA83BB83C759D14026E636E646EEF6
:1016E0005FE3BC01CD010E94870F20E030E040E0C5
:1016F00052E40E947D106B017C0120E030E048E85C
:1017000052E40E947C102AE939E949E95FE30E942A
:10171000870F4B015C0120E030E044E752E4C70151
:10172000B6010E947D109B01AC01C501B4010E946D
:101730007D104B015C0122E133E840EC5DE3C157D1
:10174000DE4F688179818A819B81CF58D1400E9488
:10175000870F9B01AC01C501B4010E947D1020E000
:1017600030E040E05FE30E94870F4B015C0120E026
:1017700030E04EE952E40E94181118160CF03BC1FB
:10178000A7019601C701B6010E94870F4B015C01BA
:10179000C157DE4F288139814A815B81CF58D140C2
:1017A000CA01B9010E94870FCD56DE4F6883798345
:1017B0008A839B83C359D14021E133E243E050E463
:1017C000C701B6010E94870F29E134E849E252E4DB
:1017D0000E947C102B013C0126E13BE442E251E4F3
:1017E000C157DE4F688179818A819B81CF58D14072
:1017F0000E94870F9B01AC01C301B2010E947D10C2
:101800002B013C0128E436E246E65EEBC701B60157
:101810000E94870FC157DE4F288139814A815B8141
:10182000CF58D1400E94870F9B01AC01C301B20188
:101830000E947D102B013C0120EE3FE040EE5BEB6F
:10184000C501B4010E94870F9B01AC01C301B20125
:101850000E947D102B013C0128EF37E840E65DEB4C
:10186000CD56DE4F688179818A819B81C359D140F1
:101870000E94870F9B01AC01C301B2010E947D1041
:101880002B013C012CEA3DE041EA5AE3C501B401D9
:101890000E94870FC157DE4F288139814A815B81C1
:1018A000CF58D1400E94870F9B01AC01C301B20108
:1018B0000E947D102B013C0128EC3FE84FE55AE3E4
:1018C000C701B6010E94870FCD56DE4F28813981AE
:1018D0004A815B81C359D1400E94870F9B01AC01B3
:1018E000C301B2010E947D102B013C0121EF3BE8B6
:1018F00045E056EBC501B4010E94870FCD56DE4F7F
:10190000288139814A815B81C359D1400E94870F68
:101910009B01AC01C301B2010E947D104B015C012F
:1019200020E030E040E551E4C157DE4F6881798125
:101930008A819B81CF58D1400E94210F87FFB5C17A
:1019400020E030E040EA52E4C701B6010E941811DD
:1019500087FDABC120E030E040EE52E4C701B601A4
:101960000E94210F18160CF449C2C157DE4F28817E
:1019700039814A815B81CF58D14060E070E080E5D9
:1019800091E40E947C1020E030E040E85EE30E9499
:10199000870F2B013C0120E030E04EEB52E4C70101
:1019A000B6010E947C106B017C0120E030E0A901AF
:1019B0000E94181118160CF06FC1A701960160E083
:1019C00070E088E891E40E947C102EE33DEE40E751
:1019D0005DE30E94870F0E9423119B01AC01C301AC
:1019E000B2010E94870F9B01AC01C501B4010E94A6
:1019F0007C104B015C0120E030E040E052E4C50186
:101A0000B4010E947C1026E838E34EE05FE30E94B8
:101A1000870F2B013C01409281015092820160921C
:101A2000830170928401AE014F5F5F4F6FE471E0FC
:101A3000CE010A960E94FE077C01892B79F0609105
:101A40003802709139026115710509F085C1D7011D
:101A500014968C911497807814968C93AE014F5FF6
:101A60005F4F64E571E0CE010A960E94FE07FC011B
:101A7000892B81F0948190789C609483C157DE4FCC
:101A800088819981AA81BB81CF58D140808391837D
:101A9000A283B383AE014F5F5F4F6CE571E0CE016F
:101AA0000A960E94FE07FC01892B81F094819078B0
:101AB0009C609483C956DE4F88819981AA81BB813D
:101AC000C759D14080839183A283B383AE014F5F16
:101AD0005F4F68E671E0CE010A960E94FE07FC01A6
:101AE000892B41F0948190789C609483408251824C
:101AF00062827382AE014F5F5F4F62E771E0CE0199
:101B00000A960E94FE07FC01892B81F04091850115
:101B1000509186016091870170918801948190783D
:101B20009C6094834083518362837383A2E3B2E019
:101B3000C559DE4FB983A883CB56D140C357DE4F7A
:101B400019821882CD58D14084E2FE01E559FE4F3A
:101B5000DE01A95BBE4F01900D928A95E1F784E208
:101B6000FE01E95BFE4FDE01AD5DBE4F01900D92BF
:101B70008A95E1F784E2FE01ED5DFE4FDE01A150A2
:101B8000BF4F01900D928A95E1F784E2FE01E1508A
:101B9000FF4FD80101900D928A95E1F7F80115A247
:101BA00014A2CE0181509F4F0E941904CE018D5D79
:101BB0009E4F0E941904B801CE010A960E94680542
:101BC000C8010E941904CE01895B9E4F0E9419042E
:101BD000CE0185599E4F0E941904409136025091C2
:101BE0003702609132027091330285E991E00E94E0
:101BF000E9000E94E90370E060E082E392E00E9465
:101C0000F10320913202309133028111EDC0211590
:101C1000310519F0C9010E94691210923302109225
:101C20003202109237021092360210923502109250
:101C3000340268EB7BE080E090E00E944C0280E0A0
:101C400090E0892B09F42FCC0E945301882309F4DA
:101C50002ACC0E94000027CCF09040026F2D70E04B
:101C600090E080E00E94260F4B015C0160914102F0
:101C70006F7070E090E080E00E94280F2DEC3CEC4B
:101C80004CEC5DE30E94870FA50194010E947D103A
:101C9000F7FEAFCC9058ADCC20E030E048E851E4FE
:101CA000C701B6010E947D1090CE20E030E04AEAE4
:101CB00052E4C157DE4F688179818A819B81CF5878
:101CC000D1400E94181118160CF095CE20E030E09B
:101CD00040EA52E4C701B6010E94181187FD8BCE7D
:101CE00020E030E04EEA52E4C701B6010E94210F25
:101CF00018160CF480CE20E030E04AEA52E4C157D6
:101D0000DE4F688179818A819B81CF58D1400E94C2
:101D10007C102DEC3CEC4CEC5DE30E94870F2B011A
:101D20003C01A701960160E070E08EEA92E40E9417
:101D30007C102DEC3CEC4CE45EE30E94870F9B0191
:101D4000AC01C301B2010E94870F9B01AC01C50128
:101D5000B4010E947D104DCEE981FA81CB80DC80F8
:101D6000EC15FD0580F49B015F01D9014D919D01AA
:101D7000C5010196D5015C91451315C05C01411167
:101D8000F4CF309729F5A0903C02B0903D02C501F8
:101D900001968C0D9D1D2D813E812817390748F431
:101DA000B1E0B98754CEF50181915F018111FBCF7C
:101DB000D7CF9C838B83C114D10409F448CEA501ED
:101DC000C6010E94AF13F601EA0DFB1D1082F60159
:101DD000D70114968C9114978078856014968C9313
:101DE0001497ED93FC933ACE10923702109236027C
:101DF0006BE271E0C9010E94C1131BCF20E030E00B
:101E00004AEA52E4C157DE4F688179818A819B8119
:101E1000CF58D1400E94181118160CF0ECCD60CFAD
:101E20008091320290913302009711F00E94691262
:101E30008091380290913902009711F00C94691248
:101E400008950E94630F08F481E00895E89409C0A2
:101E500097FB3EF490958095709561957F4F8F4FDD
:101E60009F4F9923A9F0F92F96E9BB279395F695F3
:101E7000879577956795B795F111F8CFFAF4BB0F71
:101E800011F460FF1BC06F5F7F4F8F4F9F4F16C0D5
:101E9000882311F096E911C0772321F09EE8872F5F
:101EA000762F05C0662371F096E8862F70E060E01B
:101EB0002AF09A95660F771F881FDAF7880F969594
:101EC000879597F90895990F0008550FAA0BE0E838
:101ED000FEEF16161706E807F907C0F012161306EC
:101EE000E407F50798F0621B730B840B950B39F42C
:101EF0000A2661F0232B242B252B21F408950A2692
:101F000009F4A140A6958FEF811D811D08950E94BF
:101F10009A0F0C940B100E94FD0F38F00E940410D1
:101F200020F0952311F00C94F40F0C94FA0F112467
:101F30000C943F100E941C1070F3959FC1F3950FF5
:101F400050E0551F629FF001729FBB27F00DB11D3D
:101F5000639FAA27F00DB11DAA1F649F6627B00DCD
:101F6000A11D661F829F2227B00DA11D621F739FB6
:101F7000B00DA11D621F839FA00D611D221F749FC4
:101F80003327A00D611D231F849F600D211D822F0B
:101F9000762F6A2F11249F5750409AF0F1F0882332
:101FA0004AF0EE0FFF1FBB1F661F771F881F91505F
:101FB0005040A9F79E3F510580F00C94F40F0C940B
:101FC0003F105F3FE4F3983ED4F38695779567958D
:101FD000B795F795E7959F5FC1F7FE2B880F911D89
:101FE0009695879597F9089597F99F6780E870E02F
:101FF00060E008959FEF80EC089500240A9416167F
:10200000170618060906089500240A9412161306E6
:10201000140605060895092E0394000C11F4882374
:1020200052F0BB0F40F4BF2B11F460FF04C06F5F90
:102030007F4F8F4F9F4F089557FD9058440F551F66
:1020400059F05F3F71F04795880F97FB991F61F03A
:102050009F3F79F087950895121613061406551FB1
:10206000F2CF4695F1DF08C0161617061806991F1D
:10207000F1CF86957105610508940895E894BB2712
:1020800066277727CB0197F908952F923F924F92B9
:102090005F926F927F928F929F92AF92BF92CF92F8
:1020A000DF92EF92FF920F931F93CF93DF93CDB701
:1020B000DEB7CA1BDB0B0FB6F894DEBF0FBECDBF79
:1020C00009942A88398848885F846E847D848C844A
:1020D0009B84AA84B984C884DF80EE80FD800C8153
:1020E0001B81AA81B981CE0FD11D0FB6F894DEBF36
:1020F0000FBECDBFED0108955058BB27AA270E94FF
:1021000094100C940B100E94FD0F38F00E940410E4
:1021100020F039F49F3F19F426F40C94FA0F0EF4D2
:10212000E095E7FB0C94F40FE92F0E941C1058F384
:10213000BA17620773078407950720F079F4A6F5AC
:102140000C943E100EF4E0950B2EBA2FA02D0B012F
:10215000B90190010C01CA01A0011124FF27591BEC
:1021600099F0593F50F4503E68F11A16F040A22FF2
:10217000232F342F4427585FF3CF46953795279563
:10218000A795F0405395C9F77EF41F16BA0B620B62
:10219000730B840BBAF09150A1F0FF0FBB1F661FA9
:1021A000771F881FC2F70EC0BA0F621F731F841FEC
:1021B00048F4879577956795B795F7959E3F08F012
:1021C000B0CF9395880F08F09927EE0F97958795D4
:1021D00008950E94241088F09F5798F0B92F9927EE
:1021E000B751B0F0E1F0660F771F881F991F1AF002
:1021F000BA95C9F714C0B13091F00E943E10B1E019
:1022000008950C943E10672F782F8827B85F39F017
:10221000B93FCCF3869577956795B395D9F73EF49A
:1022200090958095709561957F4F8F4F9F4F089542
:102230000E94630F08F48FEF089519F416F40C94BC
:10224000FA0F0C9468110E942410B8F39923C9F373
:10225000B6F39F57550B87FF0E9476110024A0E626
:1022600040EA900180585695979528F4805C660F57
:10227000771F881F20F026173707480730F4621BA6
:10228000730B840B202931294A2BA69517940794A8
:10229000202531254A2758F7660F771F881F20F021
:1022A00026173707480730F4620B730B840B200D99
:1022B000311D411DA09581F7B901842F9158880FD8
:1022C0009695879508950E94630F880B990B089542
:1022D0009F3F31F0915020F4879577956795B7959A
:1022E000880F911D9695879597F9089591505040C4
:1022F000660F771F881FD2F7089597FB072E16F4F5
:10230000009407D077FD09D00E94B31107FC05D0D7
:102310003EF4909581959F4F0895709561957F4FFC
:102320000895A1E21A2EAA1BBB1BFD010DC0AA1F16
:10233000BB1FEE1FFF1FA217B307E407F50720F02E
:10234000A21BB30BE40BF50B661F771F881F991FA9
:102350001A9469F760957095809590959B01AC01F2
:10236000BD01CF010895AA1BBB1B51E107C0AA1FE5
:10237000BB1FA617B70710F0A61BB70B881F991F26
:102380005A95A9F780959095BC01CD010895EE0F5F
:10239000FF1F0590F491E02D09940F931F93CF93A5
:1023A000DF938230910510F482E090E0E0915302D7
:1023B000F091540230E020E0B0E0A0E0309799F4D2
:1023C0002115310509F44AC0281B390B2430310589
:1023D000D8F58A819B816115710589F1FB01938391
:1023E0008283FE0111C0408151810281138148170F
:1023F0005907E0F04817590799F4109761F01296C1
:102400000C93129713961C933296CF01DF91CF91C4
:102410001F910F9108950093530210935402F4CF2B
:102420002115310551F04217530738F0A901DB019E
:102430009A01BD01DF01F801C1CFEF01F9CF9093FF
:10244000540280935302CDCFFE01E20FF31F81931C
:1024500091932250310939832883D7CF209151029B
:1024600030915202232B41F420910201309103015B
:1024700030935202209351022091000130910101CA
:102480002115310541F42DB73EB74091040150911B
:102490000501241B350BE0915102F0915202E21725
:1024A000F307A0F42E1B3F0B2817390778F0AC0177
:1024B0004E5F5F4F2417350748F04E0F5F1F509354
:1024C000520240935102819391939FCFF0E0E0E05C
:1024D0009CCFCF93DF930097E9F0FC0132971382F2
:1024E0001282A0915302B0915402ED0130E020E03D
:1024F0001097A1F420813181820F931F2091510206
:10250000309152022817390709F061C0F093520246
:10251000E0935102DF91CF910895EA01CE17DF07D2
:10252000E8F54A815B819E0141155105B1F7E9014A
:10253000FB83EA8349915991C40FD51FEC17FD071E
:1025400061F4808191810296840F951FE90199833E
:102550008883828193819B838A83F0E0E0E01296F6
:102560008D919C9113970097B9F52D913C911197FE
:10257000CD010296820F931F209151023091520299
:102580002817390739F6309751F5109254021092F6
:102590005302B0935202A0935102BCCFD383C283A3
:1025A00040815181840F951FC817D90761F44E5F90
:1025B0005F4F88819981480F591F518340838A81D9
:1025C0009B81938382832115310509F0B0CFF0936D
:1025D0005402E09353029ECFFD01DC01C0CF138271
:1025E0001282D7CFB0E0A0E0E8EFF2E10C94471000
:1025F0008C01009751F4CB010E94CD118C01C801D0
:10260000CDB7DEB7E0E10C946310FC01E60FF71FD5
:102610009C0122503109E217F30708F49DC0D9014B
:10262000CD91DC911197C617D70798F0C530D10529
:1026300030F3CE0104978617970708F3C61BD70B14
:102640002297C193D1936D937C93CF010E9469121D
:10265000D6CF5B01AC1ABD0A4C018C0E9D1EA09119
:102660005302B0915402512C412CF12CE12C1097C3
:1026700031F580915102909152028815990509F027
:102680005CC04616570608F058C080910001909132
:102690000101009741F48DB79EB74091040150911C
:1026A0000501841B950BE817F90708F055C0F09356
:1026B0005202E0935102F90171836083A0CF8D91A2
:1026C0009C91119712966C90129713967C90139789
:1026D000A815B90559F56C0142E0C40ED11CCA1405
:1026E000DB0420F1AC014A195B09DA011296159757
:1026F00080F06282738251834083D9016D937C9311
:10270000E114F10471F0D7011396FC93EE93129744
:1027100076CF22968C0F9D1FF90191838083F30160
:10272000EFCFF0935402E093530269CF4816590655
:1027300008F42C017D01D3019ACFCB010E94CD1169
:102740007C01009749F0AE01B8010E94AF13C801A7
:102750000E946912870153CF10E000E050CFFB01C7
:10276000DC0102C001900D9241505040D8F708950D
:10277000FB01DC018D91019080190110D9F3990BB7
:102780000895FB01DC0101900D920020E1F708950E
:1027900010E0C6E8D0E004C0FE010E94C7112196F7
:0A27A000C738D107C9F7F894FFCF3E
:1027AA00000055028000000000008901E9001601BE
:1027BA00D6014701250139010D0A002F2F22225C7B
:1027CA005C6208660C6E0A720D7409006E756C6C98
:1027DA0000652D00747275650066616C736500632F
:1027EA006F6D756E615F3135004572726F72006E82
:1027FA006F646F0068756D656461640074656D70FF
:10280A00657261747572610073656E736163696F75
:0C281A006E00726164696163696F6E009A
:00000001FF
